:020000040000FA
:060000000A128A110C280F
:10000800FE00030EF2000A08F3000A128A111328F0
:100018000A128A110F2883010A128A1142288312B0
:1000280003138C1E1828192827280A128A117020F1
:100038000A128A11F1007108F40074080A128A1170
:1000480066200A128A1173088A00720E8300FE0E57
:100058007E0E090083160313181504309900181230
:100068008312031398178B170B17831603130C129D
:1000780098168C1683120313181608000A128A1190
:100088006C200A128A110A128A112E200A128A1169
:100098000A128A1155200A128A114C280A128A114A
:1000A8000C281330F700EB30F6009130F500F50B13
:1000B8005B28F60B5B28F70B5B28023083120313CF
:1000C80088060800F00070088312031399000800DE
:1000D8008316031388100800831203131A080800F4
:02400E00393F38
:00000001FF
